:020000022000DC
:1060000000000420D1750200117602001376020010
:1060100015760200177602001976020000000000D3
:106020000000000000000000000000004D750200AC
:106030001D760200000000006D750200217602004E
:1060400023760200237602002376020023760200E4
:1060500023760200237602002376020023760200D4
:1060600023760200237602002376020023760200C4
:1060700023760200237602002376020023760200B4
:1060800023760200D17202002376020023760200FA
:106090002376020023760200237602002376020094
:1060A0002376020023760200237602002376020084
:1060B00023760200237602000000000000000000AA
:1060C0002376020023760200237602002376020064
:1060D0002376020023760200237602002376020054
:1060E00023760200237602002376020000000000DF
:1060F000000000002376020000000000237602006A
:10610000000000000000000000000000000000008F
:10611000000000000000000000000000000000007F
:10612000000000000000000000000000000000006F
:10613000000000000000000000000000000000005F
:10614000000000000000000000000000000000004F
:10615000000000000000000000000000000000003F
:10616000000000000000000000000000000000002F
:10617000000000000000000000000000000000001F
:10618000000000000000000000000000000000000F
:1061900000000000000000000000000000000000FF
:1061A00000000000000000000000000000000000EF
:1061B00000000000000000000000000000000000DF
:1061C00000000000000000000000000000000000CF
:1061D00000000000000000000000000000000000BF
:1061E00000000000000000000000000000000000AF
:1061F000000000000000000000000000000000009F
:10620000F1EE103A43F08073E1EE103A704700BFB0
:1062100010B5054C237833B9044B13B10448AFF3E0
:1062200000800123237010BDE06100200000000009
:1062300090B0020008B5034B1BB103490348AFF30C
:10624000008008BD00000000E461002090B0020062
:10625000154B002B08BF134B9D46A3F5803A002138
:106260008B460F461348144A121A02F07EFB0F4B5E
:10627000002B00D098470E4B002B00D098470020F1
:10628000002104000D000D48002802D00C48AFF397
:10629000008002F02BFB2000290001F0EBF902F056
:1062A00011FB00BF000008000000042000000000F7
:1062B00000000000E06100200C6C002000000000E5
:1062C0000000000008B501212F2001F0B7FB0121DB
:1062D0000F20BDE8084001F0B1BB00BF10B5052498
:1062E00000212F2001F02EFC00210F2001F02AFCBC
:1062F000642000F013F801212F2001F023FC01217C
:106300000F2001F01FFC642000F008F8013CE7D1E9
:106310004FF4FA60BDE8104000F000B8014638B50F
:106320004FF47A7200238002890D02F04BF9054682
:1063300000F0F2F90446AFF3008000F0EDF9001B25
:10634000854200D838BD281ABDE8384000F008BBA7
:106350002DE9F041044600F0A3FF344A344D1368A0
:10636000013313602B68002B2FD0324EE36A326862
:106370002AB33148314907680A689F4238BF036031
:106380002F48013203EB83030A6000EB8300E263D2
:10639000211D01F019FC00F08DFF33686BB12A68F4
:1063A000E36AD26A9A4208D2264B4FF080525A6072
:1063B00040BFBFF34F8FBFF36F8FBDE8F0812A68F6
:1063C000D26A9A4298BF2C60D3E72C601368012BE5
:1063D00002D0E36A174ECCE71948DFF894801A4FD1
:1063E000144E01F0E1FB194801F0DEFB184801F002
:1063F000DBFB184801F0D8FB174801F0D5FB4046FD
:1064000001F0D2FB384601F0CFFB144801F0CCFB81
:10641000134801F0C9FB134801F0C6FB124B134AA5
:10642000C2F800801F60E36AA3E700BF6C6200202F
:10643000FC610020CC620020806200207C62002091
:106440000862002000ED00E0986200201C6200203D
:10645000306200204462002058620020B8620020B0
:10646000E4620020D062002004620020006200206C
:10647000846200202DE9F843DDE90964002C60D036
:1064800016B93046BDE8F8830D46970098460223BA
:106490003A4684F85130814626633046A52102F001
:1064A00064FA2A78236B84F83420043F2A781F4446
:1064B00027F0070702B36B7884F835306B78DBB1CF
:1064C000AB7884F83630AB78B3B1EB7884F83730FA
:1064D000EB788BB12B7984F838302B7963B16B79F9
:1064E00084F839306B793BB1AB7984F83A30AB79C9
:1064F00013B1EB7984F83B30089D042D28BF0425A7
:106500000026E5626564201D84F83B60A66401F006
:1065100057FBC5F1050504F1180001F051FBE664D5
:1065200042464946A561246184F850606462384659
:1065300000F07AFE20602046FFF70AFF2046BDE803
:10654000F8832046BDE8F8832DE9F04796008046A1
:1065500030460D469946099F01F0A4FB002869D0FA
:106560008246542001F09EFB044600285BD00023A5
:10657000C0F830A03246504684F85130A52102F0D0
:10658000F4F92A78236B84F83420043E2A781E44D8
:1065900026F0070A02B36B7884F835306B78DBB1EC
:1065A000AB7884F83630AB78B3B1EB7884F8373019
:1065B000EB788BB12B7984F838302B7963B16B7918
:1065C00084F839306B793BB1AB7984F83A30AB79E8
:1065D00013B1EB7984F83B30089D042D28BF0425C6
:1065E0000026E5626564201D84F83B60A66401F026
:1065F000E7FAC5F1050504F1180001F0E1FAE664D7
:10660000A561246184F8506064624A464146504660
:1066100000F00AFE206007B13C602046FFF798FEBC
:106620000120BDE8F087504601F04EFB4FF0FF30EF
:10663000BDE8F0874FF0FF30F3E700BF70B584B0DE
:10664000002503AA02A901A8CDE9015501F032F9FC
:10665000019C002C46D00298002843D0039E206362
:106660000223B600A521324684F8513002F07DF9AC
:10667000236B1F4A6263201D84F83850043E84F85F
:106680003B50E562C4E911551E4401F099FA04F14A
:10669000180001F095FA26F007060523A3612A46A3
:1066A0001449E56430462461646284F8505000F077
:1066B000BBFD20602046FFF74BFE0F4B1C6000F037
:1066C00057FD012811D1402383F311880B490C4A4F
:1066D0000C4B4FF0FF340C6010601D6000F0BAFDF1
:1066E00004B070BD044B00221A6004B070BD00BF3E
:1066F00049444C45E5690200AC620020B0620020CC
:10670000CC620020F8620020024A13680133136053
:10671000704700BF78620020014B1868704700BFC7
:10672000F8620020024A136818441060704700BFE6
:10673000F86200202DE9F04F3B4B1B6883B0002B23
:1067400042D13A4B1F6801371F60002F4AD0384BA7
:1067500001931B68BB423BD8364EDFF8EC80DFF874
:10676000ECA0DFF8EC90002525E03368DB68DC68FE
:10677000636804F1040B9F42584651D301F04EFA6E
:10678000A36A04F118000BB101F048FAE36AD8F8E3
:10679000002003EB8300934259460AEB800088BF38
:1067A000C8F8003001F010FAD9F80030E26ADB6A6C
:1067B0009A4228BF012533681B68002BD5D1019A66
:1067C0004FF0FF33136004E01B4A1368013313607A
:1067D00000251A4B1B68002B0CBF2846012003B074
:1067E000BDE8F08F134E164B3168164A18683060BA
:1067F000196013680133136033681B683BB90C4B95
:1068000001931A464FF0FF3313601346A1E7336834
:10681000074ADB680192DB685B681360134698E700
:10682000019A1360D5E700BF78620020F86200206B
:10683000B06200200062002074620020FC62002030
:1068400004620020B4620020806200200862002000
:10685000FC6100202DE9F04700F022FD354B1A685D
:10686000013A1A601C68002C57D1334B1B68002B6F
:1068700053D0DFF8E0A0314E314FDFF8DC90DFF885
:10688000DC80336813B3F368DC68251D04F118005D
:1068900001F0C4F9284601F0C1F9E36A3A6803EB54
:1068A00083009342294609EB800088BF3B6001F0DA
:1068B0008BF9D8F80030E26ADB6A9A424FF00103A4
:1068C000DFD3CAF800303368002BDCD13CB11D4B5C
:1068D0001A6812683ABB1C4B4FF0FF321A601B4D0E
:1068E0002C6844B10126FFF725FF08B1CAF8006003
:1068F000013CF8D12C60DAF8003073B1144B4FF042
:1069000080525A6040BFBFF34F8FBFF36F8F012497
:1069100000F0D0FC2046BDE8F087002400F0CAFC5F
:106920002046BDE8F0871A68074BD268D2685268E3
:106930001A60D4E7786200206C620020B862002000
:106940008062002000620020B0620020746200209B
:1069500000ED00E0FC62002008620020FC610020E5
:1069600070B548B9184B4FF080525A6040BFBFF322
:106970004F8FBFF36F8F70BD144A15491368154EC2
:10698000013313600D6804463068043001F046F9A5
:10699000336864195C600FD20F4B1868316804319A
:1069A00001F022F90D4B1A68944238BF1C60FFF7C2
:1069B00051FF0028D6D070BD094B186831680431EA
:1069C00001F012F9F3E700BF00ED00E0786200206B
:1069D000F8620020FC61002000620020B06200200C
:1069E000046200202DE9F84F3C4E3D4D3D4CDFF850
:1069F0000891DFF80881DFF808B14FF0805A23686A
:106A0000D3B100F04DFCF368DF68381D01F006F9E2
:106A10002B68013B2B602368013B236000F04AFC9C
:106A200097F85130002B37D0012BE8D1384601F0D0
:106A30004BF92368002BE4D12B4B1B68012B06D9A3
:106A4000CBF804A040BFBFF34F8FBFF36F8F00F0B0
:106A5000BDFDD9F8003033BBD8F80030DB6A002B1D
:106A6000CDD1214B1B68012BC9D8204B204A1B6874
:106A700012689B1A012BC2D91E4A13680133136096
:106A8000D9F80030BBB1D8F80030DB6A0BB9164B2F
:106A90001B68FFF7DFFEB2E7386B01F015F93846E7
:106AA00001F012F9ABE7D8F80030DB6A002BA6D171
:106AB0000D4B1B68A3E7D8F80030DB6A002BE8D148
:106AC000094B1B68012BE4D8084B1868084B1B685E
:106AD000C01A0128DDD900F059FCDAE7E462002091
:106AE0006C6200207062002008620020B06200200A
:106AF000F86200207862002080620020FC610020A3
:106B000000ED00E0274B1B68002B40D1264A70B5F2
:106B1000264C13602268236812681B6B9A423AD98C
:106B2000234D24492A689300981880000858E0B93A
:106B3000561EB30098198000085830BB961EB3004B
:106B400098198000085800BBD61EB3009819800021
:106B50000858D0B9161FB300981980000858A0B97A
:106B6000053A930098188000085813449B00CE18EB
:106B700008337068406870600B44984204BF4068F6
:106B80007060C36823602A6070BD3246EDE7064B33
:106B900001221A60704720682168343100F086FEB7
:106BA000BEE700BF78620020FC620020FC6100208C
:106BB000806200200862002070B5174D2B680C46DB
:106BC00003F1180101F010F8144B1E682868043016
:106BD00001F024F8631C17D02B68A4195C600BD259
:106BE0000F4B18682968043100F0FEFF0D4B1A683E
:106BF000944238BF1C6070BD0B4B18682968BDE813
:106C00007040043100F0F0BF296808480431BDE845
:106C1000704000F0D9BF00BFFC610020F862002086
:106C200000620020B062002004620020D0620020D8
:106C300070B5194D2B680C46164603F1180100F08B
:106C4000C3FF164B5EB11B682868043000F0E6FFF6
:106C5000296813480431BDE8704000F0B5BF1E68D4
:106C60002868043000F0DAFF2B68A4195C600BD2AE
:106C70000C4B18682968043100F0B6FF0A4B1A68FB
:106C8000944238BF1C6070BD084B18682968BDE885
:106C90007040043100F0A8BFFC610020F8620020C1
:106CA000D062002000620020B06200200462002058
:106CB00038B5C368DC6804F11805284600F0AEFF5B
:106CC0001A4B1B682BBB251D284600F0A7FF184A4E
:106CD000E36A116817488B4288BF136003EB830394
:106CE000294600EB830000F06FFF134BE26A1B683C
:106CF000DB6A9A4282BF114B01201860104B1A6860
:106D0000126898BF00204AB90E4B4FF0FF321A604C
:106D100038BD29460C4800F057FFE6E71A68094BD2
:106D2000D268D26852681A6038BD00BF786200200D
:106D30008062002008620020FC610020FC620020CC
:106D400000620020B0620020B8620020034A044BB9
:106D500012681B68C0E90023704700BFB4620020BE
:106D6000F8620020F8B50D46044600F099FA2B6849
:106D70001649581C0A6813D0DFF854C0D4E90060E3
:106D8000DCF80070BE4201D090421AD9121A934228
:106D90000BD800232B60012500F08CFA2846F8BDA3
:106DA000002500F087FA2846F8BDDCF800009B1AA1
:106DB0000A682B60C4E90002002500F07BFA28462F
:106DC000F8BD012500F076FA2846F8BDF8620020EB
:106DD000B4620020014B01221A607047FC6200205F
:106DE000084B186860B9084B1B6853B9074A084B31
:106DF00010681B68013B984214BF012002207047B5
:106E000000207047B8620020FC620020D0620020A1
:106E10006C620020054B1B6833B1054B1B68002BCF
:106E20000CBF02200020704701207047CC62002078
:106E30007862002050B138B5C16A836C426C013B66
:106E40009142836400D01BB1002038BD0020704700
:106E5000051D0446284600F0E1FE0A4A636C1168ED
:106E6000E362C3F105008B42A061074888BF13604D
:106E700003EB830300EB8300294600F0A5FE01200D
:106E800038BD00BF80620020086200202DE9F04F6D
:106E9000AD4EDFF8C482AD4D89B033681C68002C5C
:106EA00000F08E80DB681C68FFF72EFCFFF734FCD7
:106EB000D8F80030984207465DD38442C8F80000F5
:106EC00040F20B810022E11B286801F0FBFAFFF77A
:106ED000C1FC88B99E4A4FF08053536040BFBFF356
:106EE0004F8FBFF36F8F07E0019B039920469847B0
:106EF000009B002B80F2388128680022694601F04F
:106F00003DF90028C9D0009B029C002BECDB636993
:106F100013B1201D00F082FEFFF7FEFBD8F8003011
:106F20009842814643D3009BC8F80090092BE3D8D0
:106F3000012202FA03F313F4047F69D113F0C70F9F
:106F400040F0A1809B06D7D594F82C30002BD3D1EC
:106F5000204600F0B9FECFE7DB68DC68D3F800A07C
:106F600004F10409484600F059FE636A2046984738
:106F7000E369012B36D033681A68002AECD17549D1
:106F8000C8F800700A6832600B60FFF763FCB3E773
:106F9000DB68DF68D3F800B007F1040A504600F060
:106FA0003DFE7B6A38469847FB69012B25D0336844
:106FB0001A68002AECD167490A6832600B60B2E7B0
:106FC000FFF7A2FBFFF7A8FBD8F800308342074683
:106FD000D1D8604BC8F800701B681A68B2FA82F208
:106FE000520970E7A36953449A45494622D2636027
:106FF0002461306800F0F8FDBDE7BB695B449B4548
:10700000514627D27B603F61306800F0EDFDCEE74E
:10701000019B246103EB09024A45A36162602CD8FD
:10702000002B3FF469AF4B4B211D186800F0DCFDCD
:10703000286862E72B68002B9DD00023CDE9043A35
:107040000694FFF7E7FE00231A4604A9286800F01B
:10705000BBFE90E72B68002BA9D00023CDE9043BB1
:107060000697FFF7D7FE00231A4604A9286800F008
:10707000ABFE9CE74B4500D998B13068211D00F06C
:10708000B3FD286839E7019BA269246199182CBFD8
:107090000120002049456160ECD8A9EB03039A4226
:1070A000C1D8636A20469847E369012B7FF424AF77
:1070B000019BA2692868134400283FF41EAF0022F8
:1070C000CDE904230694FFF7A5FE00231A4604A980
:1070D000286800F079FE28680FE7FFF7BBFB3368EC
:1070E000DB68D3F80C9009F1040A504600F096FDD5
:1070F000D9F81C30012B04D0D9F8243048469847E1
:10710000FAE6D9F81830C9F81090E218BA42C9F86E
:10711000042004D95146306800F066FDECE73F1BBF
:10712000BB421BD82B68002BE6D00023CDE90434EA
:10713000CDF81890FFF76EFE00231A4604A92868C0
:1071400000F042FED8E700BF006300208465002005
:1071500000ED00E00463002030650020034B514641
:10716000186800F041FDC7E7029CD0E604630020E8
:10717000F0B5204C89B000F093F82568FDB100F01F
:1071800099F82068C8B1002407AA06A905A8CDE986
:10719000054400F09DFBDDE905300221CDE900103A
:1071A000079A0293144915482346FFF763F9144AD6
:1071B0000346001B18BF0120136009B0F0BD114F3A
:1071C000114E384600F0F0FC304600F0EDFC0F4A5E
:1071D0000F4900950F4B17600E600F4A10212020B9
:1071E00000F080FD20600028C9D00C4901F058F95A
:1071F000C5E700BF84650020B8AD02008D6E0200B7
:1072000088650020086500201C65002000630020C0
:10721000046300203465002008630020B0AD020044
:10722000402383F31188FEE730B46FF002034FF080
:107230008075074C40F8045C40F80C4C40F8081C82
:1072400040F8202C40F8243C30BC4438704700BF44
:10725000217202000F4C08B5E02384F8223000F0C0
:1072600077F80D4B0D4A00211960D4F8883043F4AB
:107270007003C4F88830536843F040435360236977
:1072800043F01003236100F04FF9402383F311888A
:10729000FEE700BF00ED00E08C65002030EF00E06D
:1072A000402383F31188024A136801331360704747
:1072B0008C650020034A1368013B13600BB983F30C
:1072C000118870478C65002041DF704712DF7047DE
:1072D00070B51B4B00251D6082B01B680193019B9C
:1072E000EFF31186402383F31188164A164BD2F828
:1072F00004451D601B680093009BFFF70DFA241ADC
:1073000024F07F44012C0DD844B1FFF713FA054651
:1073100025B10E4B4FF080525A6040BF86F3118862
:1073200002B070BDFFF776FD0228EED1013CFFF7F9
:1073300001FA013C631C45EA0005F8D1E8E700BF0B
:1073400040110140001001400011014000ED00E03B
:107350000B4B0C4930B41F200B4DC3F8080501221C
:107360000224E020C3F804232A601A60C3F84443CF
:1073700081F811034FF400330B6030BC704700BF3D
:107380000010014000E100E0081001402DE9F0414B
:10739000804684B0EFF3108272B6584CA36883B96C
:1073A000574B58480121A160D3F88010014021605B
:1073B000C3F88000D3F8841061604FF0FF31C3F848
:1073C000841002B962B6504ED6F80475FFF708FD76
:1073D00000283DD04D4A4E49424528BF4246BB1881
:1073E00023F07F4301200025C6F80803C6F8403586
:1073F0000D600B6801934FF480330199C6F8043394
:10740000BFF34F8FB8F1000F54D13F4B404D41496E
:107410004FF48030C3F80803002028602D680395DE
:10742000039D08600968029101210298C3F80413C2
:10743000D3F804353249DB1B23F07F45954228BF42
:1074400015464FF40033012DC1F8803111D827D0F3
:10745000A3685BB1EFF3108372B6294A216811600B
:10746000616851600022A26003B962B604B0BDE851
:10747000F081681EFFF756F9274BDB68DA010FD55C
:10748000264A1368DB070BD5254B516803FB05F52E
:10749000A5F57425A5F51075AD0A01EB85155560A8
:1074A000FFF748F90028D3D01E4B4FF080525A60A6
:1074B00040BFCDE7F1EE103A23F09F03E1EE103A22
:1074C000F1EE103A0E4B04A84FF480614026C3F849
:1074D0008461C3F8841100F8045DFFF7F7FE9DF89E
:1074E0000C1039B920BFD3F80001D3F804110143BF
:1074F000F8D08AE7FFF7E8FE87E700BFEC6B0020D3
:1075000000E100E0FC06FFBD00100140FDFFFF00B0
:107510004011014000110140F0ED00E0001000E0DA
:1075200040420F0000ED00E00748006880F3088843
:1075300062B661B6BFF34F8FBFF36F8F4FF0E000BD
:1075400080F3118800DF00BF00600200064B19685D
:107550000868B0E8F04F80F30988BFF36F8F4FF0F1
:10756000000080F311887047FC610020EFF3098070
:10757000BFF36F8F144B1A681EF0100F08BF20ED79
:10758000108A20E9F04F10604DF8043D4FF04000A4
:1075900080F31188BFF34F8FBFF36F8FFFF7B2FAFD
:1075A0004FF0000080F3118808BC19680868B0E843
:1075B000F04F1EF0100F08BFB0EC108A80F309885E
:1075C000BFF36F8F704700BFFC610020704700BFA2
:1075D0000A490B4A0B4B9B1A03DD043BC858D05099
:1075E000FBDC094809494FF0AD3202600430043930
:1075F000FBD100F06DF8FEF72BFE00009CB00200FE
:1076000000600020E061002000F803200008000076
:10761000FEE7FEE7FEE7FEE7FEE7FEE7FEE7FEE742
:10762000FEE7FEE708B50020AFF30080FEF74AFE54
:107630000E4B43B10E4B7BB1FEF750FE00F026F926
:10764000AFF30080F8E7FEF749FE00F01FF9FEF700
:1076500045FE00F01BF9F6E7FEF740FE00F016F9D4
:10766000FEF73CFE00F012F9F6E700BF0000000054
:107670000000000000B583B000F0A0F900F088FF22
:107680000E4B019301234FF480620D4900930D4886
:107690000023FEF759FF4FF4407000F06BF9FEF73E
:1076A000CDFFBFF34F8F0849084BCA6802F4E06270
:1076B0001343CB60BFF34F8F00BFFDE79065002001
:1076C000C0AD02002576020000ED00E00400FA05DE
:1076D000604B1B6830B45C1C37D05F4A082B1268C3
:1076E00000F08F805B4B5C4A1B681268082B15D03A
:1076F000591C23D0584A1268082B12D0574AD2F886
:10770000883043F47003C2F88830BFF34F8FBFF363
:107710006F8F534B534A1A6030BC7047002A00F0F9
:107720008280032AEAD84FF08043D3F80024D2079E
:1077300044BF6FF00102C3F80024DFE74A4A4B4B15
:1077400012681B78C2F30312D6E7484A464B1278F8
:107750001B68082AC3F3031301D1032B53D9424AF0
:10776000424B12681B78C2F30312082BBAD1032ACA
:10777000B8D84FF080523E4BD2F80414C3F820150D
:10778000D2F80814C3F82415D2F80C14C3F828153D
:10779000D2F81014C3F82C15D2F81414C3F830150D
:1077A000D2F81814C3F83415D2F81C14C3F84015D5
:1077B000D2F82014C3F84415D2F82414C3F848159D
:1077C000D2F82814C3F84C15D2F82C14C3F850156D
:1077D000D2F83014C3F85415D2F83414C3F8601535
:1077E000D2F83814C3F86415D2F83C14C3F86815FD
:1077F000D2F84014C3F86C15D2F84424C3F87025AD
:1078000070E7032A0CD8134B1B684FF0804200210D
:10781000581CC2F80C11C2F81011C2F838159ED0CD
:107820000D4A1268A1E7134C1349144D2560144802
:10783000144AFB24C1F8184501681268124C21F063
:107840000F0102F00F020A434FF400710260216041
:1078500050E700BF300100103401001000ED00E0DF
:10786000006000200090D003E80F00F0E00F00F06F
:1078700000C000408C56004000F0004048810300EA
:10788000E40E0040580200104096024008B5AFF3E5
:107890000080054B4FF080525A6040BFBFF34F8FBE
:1078A000BFF36F8F08BD00BF00ED00E0704700BF61
:1078B000704700BF044B036010B46423034C0C609A
:1078C00013605DF8044B704794650020E865002064
:1078D000054B036010B44FF48073044C0C601360CC
:1078E0005DF8044B704700BF78670020CC6700202C
:1078F00070B51F4C84B04FF0FF3203A9206800F030
:107900003DFC0028F7D00398037A4568052B0DD875
:10791000DFE803F0272A221C1503D0E90361D0E930
:107920000523C06900903046A847039803681BB13F
:10793000184600F0A1F9039800F09EF9DBE7D0E9C2
:107940000523D0E90301A8470398EFE7D0E9041223
:10795000C068A8470398E9E7D0E90301A84703985E
:10796000E4E7A8470398E1E7C068A8470398DDE784
:10797000D06B002030B540230B4D83B0044600226D
:10798000184604212B6000F0DDF9084B0849186007
:107990000223CDE90031A2B2002306490648FEF7D2
:1079A000D3FD03B030BD00BFCC6B0020D06B0020F6
:1079B000D46B0020C8AD0200F17802004FF0804384
:1079C000194AD3F80014194830B41160D3F80054A0
:1079D000D3F80024164C17492A43C3F80024D4F8DE
:1079E0004025026001224FF40030C3F818259A6048
:1079F000C1F88000BFF34F8FBFF36F8F0E4C03F5BC
:107A000088334FF0A0454FF480304FF0FF31C3F87A
:107A10004803C3F808035A609A60C5F80815C4F80B
:107A2000081530BC704700BFD86B0020DC6B00200D
:107A300000A0004000E100E00003005022281BD815
:107A40003C4B53F820301F2B86BF03F01F033A4AEC
:107A50004FF0A0420E290FD8DFE801F0655F5953BF
:107A60004D474039322B241D160F080003F5E073F3
:107A700040F2037142F82310704703F5E07340F2BF
:107A8000036142F82310704703F5E07340F203519D
:107A900042F82310704703F5E07340F2034142F8C7
:107AA0002310704703F5E07340F2033142F82310CE
:107AB000704703F5E07340F2032142F8231070474A
:107AC00003F5E07340F2031142F82310704703F509
:107AD000E0734FF4403142F82310704703F5E07330
:107AE0004FF4003142F82310704703F5E073134957
:107AF00042F82310704703F5E073114942F8231050
:107B0000704703F5E073042142F82310704703F532
:107B1000E0730C2142F82310704703F5E073032152
:107B200042F82310704703F5E073002142F8231058
:107B3000704700BFD4AD02000003005004000200F3
:107B40000C000300222811D80A4B53F820301F2BB9
:107B500088BF03F01F034FF001028CBF06484FF0AF
:107B6000A04002FA03F311B1C0F808357047C0F81D
:107B70000C357047D4AD02000003005022280DD808
:107B8000074B53F820201F2A86BF02F01F02054929
:107B90004FF0A04101239340C1F80C35704700BF5E
:107BA000D4AD02000003005000F108034FF0FF3194
:107BB0000022816002604360C0E90333704700BF68
:107BC00000230361704700BF4368026810B49C68DB
:107BD0008C609C684B600132616099605DF8044B79
:107BE00008610260704700BF30B40D686B1C11D093
:107BF00000F1080200E01A4653681C68AC42FAD94A
:107C000004684B60013499608A60516008610460C7
:107C100030BC704702695368F2E700BF4268816870
:107C2000036910B4916081685C684A601A68844294
:107C300008BF5960013A002101611A6018685DF8B7
:107C4000044B704710B50446FFF7E4F8022804D04F
:107C50002046BDE8104000F06DBEFEF755FD204601
:107C600000F068FE0446FEF7F5FD0CB1204610BD9D
:107C7000FFF71EFEFAE700BF10B50446FFF7CAF88B
:107C800002280AD144B1FEF73FFD204600F05AFE1B
:107C9000BDE81040FEF7DEBD10BD2046BDE8104037
:107CA00000F050BE10B50446FEF72EFD204600F051
:107CB00041FE0446FEF7CEFD0CB1204610BDFFF795
:107CC000F7FD204610BD00BF50B110B50446FEF7C9
:107CD0001BFD204600F036FEBDE81040FEF7BABDA1
:107CE000704700BF38B51C469DF8105043B30029BB
:107CF00008BF1A460123C4E90F01226084F8463008
:107D0000FFF7CEFAD4E90F132268A26001FB03F15A
:107D1000CB1A134400200A44FF21A063E36084F8D7
:107D20004410626084F8451004F11000FFF73CFF36
:107D300004F12400FFF738FFFFF7BCFA84F84C5039
:107D4000204638BDF8B5074615460E4669B100FB1A
:107D500001F05030FFF7A6FF044690B3002200F177
:107D6000500380F84620036007E05020FFF79AFF99
:107D7000044630B384F846602460C4E90F76FFF708
:107D80008FFAD4E90F132268A26001FB03F1CB1A2A
:107D9000134400200A44FF21A063E36084F84410E8
:107DA000626084F8451004F11000FFF7FDFE04F155
:107DB0002400FFF7F9FEFFF77DFA84F84C502046C7
:107DC000F8BD00242046F8BD2DE9F04F044685B0EB
:107DD0001D4601928846FFF763FAA26BE36BA84F3A
:107DE0004FF000099A424E46C0F08B80022D00F001
:107DF00006810198002800F03081B9F1000F00F0F1
:107E00009580FFF757FAFEF77FFCFFF749FA94F8E1
:107E10004430FF2B08BF84F8446094F84530FF2BB2
:107E200008BF84F84560FFF745FA01A902A8FEF7EC
:107E300099FF002840F01881FFF732FAA26BE36B3C
:107E40009A4277D0FFF736FAFFF72AFA94F84530CE
:107E50004FFA83FABAF1000F1ADD636AC3B104F175
:107E6000240907E00AF1FF33DBB24FFA83FA7BB152
:107E7000636A6BB14846FEF71BFF0028F2D0FEF79D
:107E8000A9FF0AF1FF33DBB24FFA83FA002BEFD1DF
:107E9000FF2384F84530FFF70DFAFFF701FA94F855
:107EA00044304FFA83FABAF1000F1ADD2369C3B1E7
:107EB00004F1100907E00AF1FF33DBB24FFA83FA4D
:107EC0007BB123696BB14846FEF7F2FE0028F2D081
:107ED000FEF780FF0AF1FF33DBB24FFA83FA002B83
:107EE000EFD1FF2384F84430FFF7E4F9FEF7B2FC4A
:107EF000FFF7D6F9A26BE36B9A424FF00109BFF48A
:107F000075AF226CA66B002A40F0FC802568013614
:107F1000002D00F01881A663636A002B40F08C806E
:107F2000FFF7C8F9012005B0BDE8F08F02A8FEF701
:107F30000DFF66E704F11009FFF7BCF94846019907
:107F4000FEF73AFEFFF7ACF994F845A04FFA8AFA2B
:107F5000BAF1000F1CDD636AD3B104F1240B08E011
:107F60000AF1FF3A5FFA8AF34FFA83FA83B1636A40
:107F700073B15846FEF79CFE0028F1D00AF1FF3A93
:107F8000FEF728FF5FFA8AF34FFA83FA002BEED14F
:107F9000FF2384F84530FFF78DF9FFF781F994F856
:107FA00044304FFA83FABAF1000F06DC15E00AF10B
:107FB000FF33DBB24FFA83FA7BB123696BB14846DA
:107FC000FEF776FE0028F2D0FEF704FF0AF1FF3339
:107FD000DBB24FFA83FA002BEFD1FF2384F8443051
:107FE000FFF768F9FEF736FC002881D14FF0805387
:107FF0007B6040BFBFF34F8FBFF36F8F78E7226C7A
:10800000A66B002A82D04146E06800F0A3FC236CF6
:10801000E26821685B421A448A42E26080F089800B
:1080200062681344E360022D00F083800136A6638A
:10803000636A002B3FF474AF04F12400FEF738FEAE
:1080400000283FF46DAF0E4B4FF080525A6040BF96
:10805000BFF34F8FBFF36F8F62E70090FFF72AF9EE
:10806000009805B0BDE8F08FFFF71AF994F8455075
:108070006DB2002D18DD636AB3B104F1240607E088
:1080800000ED00E0013DEBB25DB26BB1636A5BB144
:108090003046FEF70DFE0028F4D0013DFEF79AFEB3
:1080A000EBB25DB2002BF1D1FF2384F84530FFF72E
:1080B00001F9FFF7F5F894F844506DB2002D16DD84
:1080C0002369A3B104F1100605E0013DEBB25DB2F6
:1080D0006BB123695BB13046FEF7EAFD0028F4D0AE
:1080E000013DFEF777FEEBB25DB2002BF1D1FF232D
:1080F00084F84430FFF7DEF8FEF7ACFB002005B053
:10810000BDE8F08F41465DBBA06800F023FCA3688A
:10811000216C62680B44934206F10106A360FFF4F0
:10812000FAAEA663636A2268A260002B3FF4F8AE41
:1081300082E7002E7FF4EFAE0123A363636A002B76
:108140003FF4EEAE78E76068FEF774FEA663636AFC
:108150006560002B7FF470AF00287FF474AFDFE61A
:10816000E06800F0F7FB236CE26821685B421A4488
:108170008A42E260BFF457AF52E700BF2DE9F047F3
:10818000044684B088460192FFF78AF8D4F8389004
:10819000B9F1000F40F09380019B002B00F00A81A1
:1081A00002A8FEF7D3FDB34F4E4604F12405FFF7B6
:1081B00081F8FEF7A9FAFFF773F894F84430FF2B23
:1081C00008BF84F8446094F84530FF2B08BF84F85A
:1081D0004560FFF76FF801A902A8FEF7C3FD00286C
:1081E00040F08780FFF75CF8A36B002B40F0E8803D
:1081F000FFF760F801992846FEF7DEFCFFF750F81C
:1082000094F845304FFA83F9B9F1000F06DC15E018
:1082100009F1FF33DBB24FFA83F97BB1636A6BB1CB
:108220002846FEF745FD0028F2D0FEF7D3FD09F100
:10823000FF33DBB24FFA83F9002BEFD1FF2384F831
:108240004530FFF737F8FFF72BF894F844304FFA32
:1082500083FABAF1000F1ADD2369C3B104F11009E2
:1082600007E00AF1FF33DBB24FFA83FA7BB12369EF
:108270006BB14846FEF71CFD0028F2D0FEF7AAFDC0
:108280000AF1FF33DBB24FFA83FA002BEFD1FF2361
:1082900084F84430FFF70EF8FEF7DCFA00287ED1B0
:1082A0004FF080537B6040BFBFF34F8FBFF36F8FA2
:1082B000FEF7F6FFD4F83890B9F1000F76D0226CB3
:1082C00052B1E168636811449942E16024BF2168BA
:1082D000E160404600F03EFB09F1FF33A3632369F0
:1082E000002B40F0C980FEF7E5FF012004B0BDE897
:1082F000F087FEF7D5FF94F845304FFA83F9B9F1CE
:10830000000F06DC15E009F1FF33DBB24FFA83F909
:108310007BB1636A6BB12846FEF7CAFC0028F2D035
:10832000FEF758FD09F1FF33DBB24FFA83F9002B5A
:10833000EFD1FF2384F84530FEF7BCFFFEF7B0FF16
:1083400094F844304FFA83FABAF1000F1ADD23692A
:10835000C3B104F1100907E00AF1FF33DBB24FFAB1
:1083600083FA7BB123696BB14846FEF7A1FC002874
:10837000F2D0FEF72FFD0AF1FF33DBB24FFA83FA9A
:10838000002BEFD1FF2384F84430FEF793FFFEF774
:1083900061FAFEF785FFA36B63B1FEF78BFFFEF773
:1083A0007FFFD4F83890B9F1000F88D1019B002BE2
:1083B0007FF4FDAEFEF77EFF002004B0BDE8F0873D
:1083C000FEF778FFFEF76CFF94F845304FFA83F91B
:1083D000B9F1000F06DC15E009F1FF33DBB24FFA0B
:1083E00083F97BB1636A6BB12846FEF761FC002814
:1083F000F2D0FEF7EFFC09F1FF33DBB24FFA83F95D
:10840000002BEFD1FF2384F84530FEF753FFFEF732
:1084100047FF94F844304FFA83FABAF1000F1ADD9F
:108420002369C3B104F1100907E00AF1FF33DBB29D
:108430004FFA83FA7BB123696BB14846FEF738FCEB
:108440000028F2D0FEF7C6FC0AF1FF33DBB24FFA88
:1084500083FA002BEFD1FF2384F84430FEF72AFF84
:10846000FEF7F8F9FEF71CFFD4F83890B9F1000FC9
:108470009CD024E700ED00E004F11000FEF718FCAA
:1084800000283FF430AF054B4FF080525A6040BF98
:10849000BFF34F8FBFF36F8F25E700BF00ED00E004
:1084A000074B1A681AB19A6802B17047012210B4DA
:1084B00003EBC20443F8321060605DF8044B704770
:1084C000F86B002070B505460C461646FEF7E8FE30
:1084D00095F84430FF2B04BF002385F8443095F80D
:1084E0004530FF2B04BF002385F84530FEF7E2FE40
:1084F000AB6B2BB93246214605F12400FEF798FB01
:10850000FEF7CEFE95F8454064B2002C16DD6B6A8E
:10851000A3B105F1240605E0013CE3B25CB26BB106
:108520006B6A5BB13046FEF7C3FB0028F4D0013C18
:10853000FEF750FCE3B25CB2002BF1D1FF2385F8CB
:108540004530FEF7B7FEFEF7ABFE95F8444064B247
:10855000002C16DD2B69A3B105F1100605E0013CE6
:10856000E3B25CB26BB12B695BB13046FEF7A0FBA6
:108570000028F4D0013CFEF72DFCE3B25CB2002BE6
:10858000F1D1FF2385F84430BDE87040FEF792BE7C
:1085900008B501210320FFF751FA0320FFF7EEFA97
:1085A00001210420FFF74AFA0420FFF7E7FA01212E
:1085B0002220FFF743FA01212220BDE80840FFF7FF
:1085C000C1BA00BF53B94AB9002908BF00281CBF6F
:1085D0004FF0FF314FF0FF3000F072B9ADF1080CF1
:1085E0006DE904CE00F006F8DDF804E0DDE90223D1
:1085F00004B070472DE9F047089E04468846002BDA
:108600004BD18A42154667D9B2FA82F24AB1C2F119
:10861000200701FA02F320FA07F7954047EA03081A
:1086200094404FEA154E230CB8FBFEF71FFA85FC69
:108630000EFB178843EA084307FB0CF1994209D95E
:10864000EB1807F1FF3080F01B81994240F218814E
:10865000023F2B445B1AA4B2B3FBFEF00EFB1033B7
:1086600044EA034400FB0CFCA44509D92C1900F191
:10867000FF3380F00781A44540F2048102382C4486
:1086800040EA0740A4EB0C0400271EB1D4400023AD
:10869000C6E900433946BDE8F0878B4209D9002E70
:1086A00000F0EB800027C6E9000138463946BDE8F6
:1086B000F087B3FA83F7002F47D18B4202D382426F
:1086C00000F2FA80841A61EB030301209846002E21
:1086D000E0D0C6E90048DDE702B9FFDEB2FA82F277
:1086E000002A40F08F80491B4FEA154E1FFA85F88B
:1086F0000127B1FBFEFC230C0EFB1C1143EA0143D6
:1087000008FB0CF1994207D9EB180CF1FF3002D2AB
:10871000994200F2CD808446591AA3B2B1FBFEF013
:108720000EFB101443EA044408FB00F8A04507D9E7
:108730002C1900F1FF3302D2A04500F2B680184692
:10874000A4EB080440EA0C409FE7C7F1200CBB40B3
:1087500022FA0CFE4EEA030E01FA07F420FA0CF599
:1087600021FA0CF34FEA1E482543B3FBF8F92C0C11
:1087700008FB19331FFA8EFA44EA034309FB0AF493
:108780009C4202FA07F200FA07F10BD91EEB030331
:1087900009F1FF3080F087809C4240F28480A9F18B
:1087A000020973441B1BADB2B3FBF8F008FB103396
:1087B00045EA034400FB0AFAA24508D91EEB04046B
:1087C00000F1FF336BD2A24569D90238744440EA04
:1087D0000940A0FB0289A4EB0A044C45C2464B4663
:1087E00054D351D0002E69D0B1EB0A0564EB0304D9
:1087F00004FA0CFCFD40FC404CEA0505C6E90054B7
:10880000002747E7C2F1200320FA03F7954001FA59
:1088100002F021FA03F34FEA154E3843010CB3FB83
:10882000FEF71FFA85F80EFB173341EA034107FBF9
:1088300008F38B4204FA02F407D9691807F1FF3CE8
:108840002FD28B422DD9023F2944CB1A81B2B3FBE0
:10885000FEF00EFB103341EA034100FB08F38B42AC
:1088600007D9691800F1FF3C17D28B4215D902389D
:108870002944C91A40EA07473BE73746304609E72B
:108880000746E7E61846FBE64145ABD2B8EB020ADD
:1088900069EB0E0201381346A4E76046E9E7184683
:1088A00095E76746D1E781467CE702382C4447E7E5
:1088B000ACF1020C2B442FE7384608E73746E9E6CF
:1088C000704700BF08B5074B044613B10021AFF352
:1088D0000080054B1868836A03B19847204602F070
:1088E00059FA00BF0000000060AE020070B50D4EE6
:1088F0000D4CA41BA4100025A54209D10B4E0C4C15
:1089000002F04AFAA41BA4100025A54205D170BDAF
:1089100056F8253098470135EEE756F82530984748
:108920000135F2E7D4610020D4610020D461002039
:10893000DC610020024B0146186800F07BB800BFE4
:1089400004600020024B0146186800F025B800BF03
:108950000460002010B5431E0A44914200D110BDAE
:1089600011F8014B03F8014FF7E702440346934225
:1089700000D1704703F8011BF9E738B502FB01F499
:10898000214600F057F8054618B122460021FFF7AE
:10899000ECFF284638BD000038B50546002945D013
:1089A00051F8043C0C1F002BB8BFE41801F052FA38
:1089B0001F4A1368104633B9636014602846BDE847
:1089C000384001F048BAA3420CD92168621893429A
:1089D00004BF1A685B68636004BF521822600460B9
:1089E000ECE713465A680AB1A242FAD91968581836
:1089F000A0420BD120680144581882421960DDD191
:108A0000106852685A6001441960D7E702D90C23F4
:108A10002B60D3E7206821188A4204BF116852688E
:108A2000626004BF091821605C60C7E738BD00BF01
:108A3000E06B002070B5CD1C25F0030508350C2D2A
:108A400038BF0C25002D064601DBA94203D90C23B3
:108A50003360002070BD01F0FDF9214A1468214601
:108A600091B9204C23681BB9304600F087FB206089
:108A70002946304600F082FB431C24D10C2333608E
:108A8000304601F0E8F9E4E70B685B1B18D40B2BC8
:108A90000FD90B60CD50CC18304601F0DCF904F151
:108AA0000B00231D20F00700C31AD3D05A42E25016
:108AB000D0E78C424B6816BF636013600C46EBE74F
:108AC0000C464968CCE7C41C24F00304A04205D03E
:108AD000211A304600F052FB0130CFD02560DBE791
:108AE000E06B0020E46B00202DE9FF4755EC104BB4
:108AF0000D9FDDF830A0002D0E4691461946B8BFF7
:108B000022462B4627F02007BBBF05F100431D4638
:108B100000232D23B8BF1446462F0B7004D0452FD9
:108B200000D10136022100E0032103AB019302AB27
:108B300000933246534645EC104B00F0C5FB472FDF
:108B4000804602D119F0010F26D0462F08EB060906
:108B500011D198F80030302B0AD100220023204692
:108B6000294602F099F818B9C6F10106CAF8006062
:108B7000DAF800309944002200232046294602F00A
:108B80008BF838B93022039B4B4505D2591C039111
:108B90001A70F8E7CDF80C90039B0E9AA3EB08032C
:108BA0004046136004B0BDE8F087F7B500290446DD
:108BB000BABF49422D232B23092904F8022B437005
:108BC00020DD0DF107031F460A2691FBF6F506FB93
:108BD00015113031092D03F8011C03F1FF3229462C
:108BE00009DC3031023B02F8011CBB42224604D3AF
:108BF000101A03B0F0BD1346E7E713F8012B04F891
:108C0000012BF2E7302319448370021DC170EFE796
:108C10002DE9F04F8DB00C46DDF8588016461F4602
:108C2000054601F009F903680493184600F0B6FA06
:108C300000230A93D8F800300590073323F0070388
:108C400003F1080294F818A0D4F800B0C8F8002086
:108C5000D3E90023C4E91223D4E9128929F000439F
:108C60000793CDF818804FF0FF32A74BDDE90601DE
:108C700002F044F870BB4FF0FF32A34BDDE9060170
:108C800002F01EF830BB002200234046494602F0A5
:108C90000DF810B12D2384F843309C4A9C4BBAF157
:108CA000470F8CBF9046984603232BF004022361A4
:108CB00022604FF00009009733460BAA2146284650
:108CC00000F0E6F9013040F08D804FF0FF300DB03C
:108CD000BDE8F08F42464B464046494602F00EF84A
:108CE00010B18C4A8C4BDAE761684B1C4BF4806204
:108CF0000AA83ED1062363600023CDE9020309AB35
:108D0000009349EC108B0DF123032260CDF804A0F1
:108D100061682846FFF7E8FE0AF0DF03472B80462C
:108D200009D1099BD81C02DB6268934247DDAAF196
:108D3000020A5FFA8AFABAF1650F099924D8013953
:108D4000524604F150000991FFF72FFF0A9A1318B9
:108D5000012A8146236102DC2268D10701D5013353
:108D600023619DF82330002BA5D02D2384F84330B8
:108D7000A1E7BAF1670F00F07781BAF1470FBBD1D5
:108D80000029B9D10123B6E7BAF1660F19D100293C
:108D900063680CDD216113B92268D20702D5013363
:108DA0000B442361099BA3654FF00009D9E713B970
:108DB0002268D00701D50233F3E70123F1E74FF032
:108DC000670ADDE90932934205DB22682361D10796
:108DD000E8D50133E5E7002BD4BFC3F1020301233B
:108DE0001344DEE723685A0507D423694246314617
:108DF0002846B84701302BD167E7BAF1650F40F23A
:108E0000DC8000220023D4E9120101F045FF002894
:108E100033D00123414A31462846B84701303FF458
:108E200054AFDDE909239A4202DB2368D8070FD546
:108E3000DDE9042331462846B84701303FF445AF09
:108E40004FF0000804F11A090A9B013B434509DC75
:108E500023689B0700F10381E0680B9B9842B8BF31
:108E6000184634E701234A4631462846B8470130C0
:108E70003FF42BAF08F10108E6E7099B002B2BDC40
:108E80000123264A31462846B84701303FF41DAF3A
:108E9000099B23B90A9B13B92368D907D8D5DDE903
:108EA000042331462846B84701303FF40EAF4FF057
:108EB000000904F11A0A099B5B424B4501DC0A9B3D
:108EC00094E70123524631462846B84701303FF423
:108ED000FCAE09F10109EEE70A9AA36D9A42A8BF18
:108EE0001A46002A914607DD134631464246284677
:108EF000B84701303FF4E9AE04F11A034FF0000B1C
:108F000029EAE979069315E0FFFFEF7F68AE0200DA
:108F100064AE020070AE02006CAE020074AE0200DD
:108F20000123069A31462846B84701303FF4CDAEBA
:108F30000BF1010BD4F858A0AAEB09035B45EFDC59
:108F4000DDE909239A42D04415DB2368DA0712D4FD
:108F50000A9B0999A3EB0A02A3EB010A9245A8BF59
:108F60009246BAF1000F0EDC4FF000082AEAEA7AC6
:108F700004F11A0919E0DDE9042331462846B8470F
:108F80000130E5D1A1E65346424631462846B8476E
:108F90000130E9D199E601234A4631462846B847CF
:108FA00001303FF492AE08F10108DDE909239B1A74
:108FB000A3EB0A034345EEDC4AE70A9A012A01DCE7
:108FC000DB073AD50123424631462846B8470130EF
:108FD0003FF47BAEDDE9042331462846B847013033
:108FE00008F101083FF471AE0A9B002203F1FF3A39
:108FF000D4E91201002301F04FFEC8B9534642469E
:1090000031462846B84701300ED15EE6012352466C
:1090100031462846B84701303FF457AE08F1010801
:109020000A9B013B4345F1DC4B4604F15002DEE66E
:109030004FF0000804F11A0AF2E70123DFE70123E9
:109040004A4631462846B84701303FF43EAE08F163
:109050000108E3680B9A9B1A4345F0DCFCE64FF0ED
:10906000000804F11909F4E700293FF48BAE00234E
:10907000CDE9020309AB009349EC108B2260CDF8D7
:1090800004A00DF123032846FFF72EFD804648E695
:109090002DE9F04791461F468A680B69DDF820806C
:1090A0009342B8BF1346C9F8003091F843200646F2
:1090B0000C4612B10133C9F800302368990642BF4B
:1090C000D9F800300233C9F80030256815F00605DC
:1090D00007D104F1190AE368D9F800209B1AAB42C2
:1090E00028DC94F843302268003318BF012392062D
:1090F0002DD404F1430239463046C047013020D018
:109100002368E568D9F8002003F00603042B08BFA4
:10911000AD1AA36822690CBF25EAE57500259342C4
:10912000C4BF9B1AED184FF000091A344D451AD1EF
:10913000002008E00123524639463046C04701303E
:1091400003D14FF0FF30BDE8F0870135C3E7E118E8
:109150005A1C302081F84300224494F8451082F8CC
:1091600043100233C5E70123224639463046C04743
:109170000130E6D009F10109D8E7000038B5064C06
:10918000002305460846236001F0F6FD431C02D18A
:10919000236803B12B6038BD086C0020034613F828
:1091A000012B002AFBD1181A013870472DE9F74F1F
:1091B00003690C69A3428046C0F28280013C01F140
:1091C00014074FEA840C00F1140657F8245056F89F
:1091D000240006EB0C03013507EB0C090193B0FBEF
:1091E000F5F595B34FF0000A3846B646D34650F829
:1091F000042B93B205FB03A34FEA134A9BB2ABEBDC
:109200000303120CDEF800B005FB02A213FA8BF385
:109210004FEA124A1FFA82FBDEF80020CBEB124223
:1092200002EB23429BB243EA024381454FEA224BC1
:109230004EF8043BDBD256F80C3033B9019B043BAB
:109240009E421A4630D3C8F81040404601F01AF842
:10925000002825DB013530464FF0000C57F8042B71
:10926000D0F800E093B2ACEB0303120C13FA8EF3C8
:10927000C2EB1E4202EB23429BB243EA0243B945D2
:109280004FEA224C40F8043BE8D256F8242006EB83
:1092900084032AB9043B9E421A460BD3C8F81040F7
:1092A000284603B0BDE8F08F1268043B002ACAD1FB
:1092B000013CC5E71268043B002AEFD1013CEAE714
:1092C0000020EEE7000000002DE9F04F57EC106B96
:1092D00097B0456A069104460B921293DDF88080A0
:1092E000CDE900673DB91020FEF7ACFC6062C0E933
:1092F00001550560C560636A196851B15A684A60D2
:10930000012393408B60204600F0DAFD636A00225F
:109310001A603B1EBBBF23F00043019300230122D0
:10932000ACBFC8F80030C8F80020AF4BDDF80480AF
:1093300033EA080314D1129A42F20F731360009BB0
:1093400023B9C8F31300002800F04285219BDFF801
:10935000ACB2002B00F044850BF1030300F03EBDDE
:10936000DDE90067002200233046394601F094FC15
:10937000814668B1129A01231360219B002B00F0F3
:1093800024859A4B219A03F1FF3B136000F028BD1E
:1093900014AA15A947EC106B204600F0EAFFC8F3A9
:1093A0000A550490002D7CD0C7F3130343F07F5B74
:1093B000B2464BF4401BA5F2FF35CDF84C9000228D
:1093C0008B4B5046594601F047F881A3D3E900235F
:1093D00001F0FAF980A3D3E9002301F03FF8064633
:1093E00028460F4601F086F97DA3D3E9002301F05A
:1093F000EBF902460B463046394601F02FF8064697
:109400000F4601F091FC0022824600233046394687
:1094100001F04CFC48B1504601F06CF932463B4635
:1094200001F03AFC08B90AF1FF3ABAF1160F59D81F
:10943000704901EBCA01DDE90023D1E9000101F027
:1094400053FC002850D00AF1FF3A00230F93149BDD
:109450005D1BB5F1010849BFC5F101030023059368
:109460004FF0000858BF0593BAF1000F3EDB002310
:10947000D044CDF838A00793069B092B00F29080CA
:10948000052BC4BF043B0693069BA3F10203CCBF8C
:1094900000250125032B00F28F80DFE803F07D7F9C
:1094A0003171DDE914531D4405F23240202813DDEB
:1094B000C0F14000009B08FA00F805F2124023FAC0
:1094C00000F048EA000001F005F901238246A1F10D
:1094D000F87B013D139372E7009BC0F1200003FA73
:1094E00000F0F0E70123B1E70F90B0E7059BA3EB95
:1094F0000A030593CAF10003079300230E93BBE709
:1095000001230A930B9B002B59DD02939946666A4F
:1095100000227260042202F114009842716853D94B
:10952000204600F099FC636A3060B9F10E0FD3F861
:1095300000B000F2E680002D00F0E3809DED007B9E
:10954000BAF1000F8DED107B74DD2A4A0AF00F038B
:1095500002EBC30393ED007B4FEA2A16F0068DED74
:10956000087B65D5244BDDE91001D3E9082301F020
:1095700055FACDE9000106F00F0603251E4F4CE019
:1095800001230A930B9B534403F1010902934B46B9
:10959000012BB8BF0123BAE70023B2E70023F0E7AD
:1095A0000125002306930A954FF0FF330293994655
:1095B000002212230B92AAE701230A93F4E7012366
:1095C000029399461A46F5E7013171605200A2E70D
:1095D00061436F63A787D23FB3C8608B288AC63FB9
:1095E000FB799F501344D33F0000F07F75AE02001B
:1095F0000000F83FB0AE020088AE02007FAE02006D
:10960000F10708D5DDE90801D7E9002301F0DCF80E
:10961000CDE90801013576100837002EF0D1DDE9DB
:109620000823DDE9000101F0F9F9CDE900011AE0B4
:109630000225A3E700F0A080CAF100069F4BA04FCF
:1096400006F00F0203EBC203D3E90023DDE91001AA
:1096500001F0BAF8CDE90001361100230225002EF1
:109660007FD1002BE1D10F9B002B00F08780DDE93B
:1096700000670022934B3046394601F017FB002863
:109680007CD0B9F1000F79D0029B002B35DD0AF1B7
:10969000FF330893394600228B4B304601F094F893
:1096A000CDE90001029F0135284601F023F8DDE9EC
:1096B000002301F089F80022844B00F0CFFE05461C
:1096C000A1F15076002F5DD10022814BDDE9000130
:1096D00000F0C2FE2A463346CDE9000101F004FB4A
:1096E000002840F088822A4606F10043DDE90001A7
:1096F00001F0DCFA002840F07C82DDE91023CDE99E
:109700000023159B002BC0F25081BAF10E0F00F31D
:109710004C816A4B03EBCA0393ED007B0B9B002B40
:109720008DED027B80F2D880B9F1000F00F3D48078
:1097300040F05E820022664B51EC170B01F044F8BA
:10974000DDE9002301F0C6FA4F464E46002840F0FE
:10975000348231230BF101058BF800300AF1010A44
:109760002FE2F20705D5D7E9002301F02DF80135E6
:1097700001237610083772E7022574E7CDF820A0A0
:109780004F4691E74D4B03EBC70353E902010A9B98
:10979000002B47D002460B4600204E4901F03EF90F
:1097A0002A46334600F058FECDE90C015D46DDE95E
:1097B000000101F0B9FA064600F09CFF02460B4694
:1097C000DDE9000100F048FE303605F8016BDDE907
:1097D0000C23CDE9000101F069FA002863D1DDE92D
:1097E00000230020374900F037FEDDE90C2301F0AB
:1097F0005DFA002840F0B780A5EB0B039F427FF78E
:109800007CAF0022304BDDE90C0100F0DDFF0022CF
:10981000CDE90C012C4BDDE9000100F0D5FFCDE9CD
:109820000001C4E72A46334600F0CEFFCDE90C0123
:109830000BEB07055E46DDE9000101F075FA07460E
:1098400000F058FF303702460B46DDE9000100F01A
:1098500003FE06F8017BAE42CDE900014FF00002A5
:1098600026D11C4BDDE90C0100F0F8FD02460B4649
:10987000DDE9000101F038FA002874D1DDE90C239C
:109880000020144900F0E8FD02460B46DDE9000126
:1098900001F00CFA00283FF430AF15F8013C302BF2
:1098A00005F1FF3202D0DDF820A04AE01546F4E7CA
:1098B000054B00F089FFCDE90001BCE7B0AE020026
:1098C00088AE02000000F03F0000244000001C4071
:1098D000000014400000E03FDDE900675D46DDE97F
:1098E00002233046394601F099F801F01DFA80460E
:1098F00000F000FFDDE9022300F066FF02460B46A0
:109900003046394608F1300600F0A6FD05F8016B37
:10991000A5EB0B06B14502460B4639D100F09EFD82
:10992000DDE9022306460F4601F0DEF9C8B9DDE99C
:1099300002233046394601F0AFF910B118F0010F9B
:109940000FD10499204600F0BBFA0023129A2B7025
:109950000AF101031360219B002B00F041821D607E
:109960003EE2CDF820A015F8012C392A05F1FF338D
:1099700008D19B450AD1089B0133089330238BF80B
:1099800000305B461A7801321A708CE71D46EAE710
:1099900000229B4B00F018FF0022002306460F46D2
:1099A00001F07AF900289AD0CBE70A9A002A00F051
:1099B0008B80069A012A6EDC139A002A67D003F284
:1099C0003343079F059D059A01211A4420460592BD
:1099D000984400F015FB0646002D0CDDB8F1000F91
:1099E00009DD4545059A2B46A8BF4346D21A059284
:1099F000ED1AA8EB0308079BEBB10A9B002B67D07D
:109A00008FB131463A46204600F09AFB049A01464F
:109A10000646204600F0FDFA04990890204600F022
:109A20004FFA089B0493079BDA1B04D00499204645
:109A300000F086FB04900121204600F0E1FA0E9B25
:109A40000746002B00F0D0811A460146204600F060
:109A500077FB069B012B074640DC009B002B39D18E
:109A6000019BC3F31303002B36D1019B23F000436A
:109A70001B0D1B052BB1059B0133059308F1010854
:109A8000012307930E9B002B2AD1012030E0149B69
:109A9000C3F1360395E7079B09F1FF37BB42BFBF10
:109AA000079B0797FA1A0E9BBBBF9B180E93DF1BF1
:109AB0000027B9F1000FB5BF059B059DA3EB090574
:109AC0004B46B8BF00237EE7079F059D0A9E83E7AC
:109AD000079AABE70023D4E7009BD2E70023079364
:109AE0003B6907EB8303186900F03CFAC0F12000E2
:109AF000404410F01F0047D0C0F12003042B3BDD91
:109B0000059BC0F11C000344059305448044059B5C
:109B1000002B05DD1A460499204600F05FFB0490F7
:109B2000B8F1000F05DD39464246204600F056FBED
:109B300007460F9B53B33946049800F0A3FB002857
:109B400024DA00230A220499204600F0D0F90A9B67
:109B500004900AF1FF3A002B00F04D8100233146BA
:109B60000A22204600F0C3F9029B002B06464FDC78
:109B7000069B022B4CDD11E0C9D0059A1C331A4418
:109B800005921D449844C2E70346F6E7B9F1000F79
:109B900038DC069B022B35DDCDF80890029B63B9BB
:109BA00039460522204600F0A2F9014607460498EE
:109BB00000F068FB00283FF7CCAD0B9B5D466FEAD9
:109BC000030A4FF000093946204600F079F9002ECB
:109BD0003FF4B7AEB9F1000F05D0B14503D0494607
:109BE000204600F06DF93146204600F069F9A8E6FC
:109BF00000273E46E1E7DDF820A03E46A9E500BF8C
:109C0000000024400A9BCDF80890002B00F0FA8059
:109C1000002D05DD31462A46204600F0DFFA0646D3
:109C2000079B002B4CD07168204600F015F9326973
:109C300002320546920006F10C010C30FEF78AFE56
:109C400001222946204600F0C9FA009BCDF814B045
:109C500003F00103B1460793064639460498FFF71F
:109C6000A5FA4946054600F13008049800F00AFBC1
:109C7000324600903946204600F01EFBC36802467B
:109C800003BB01460890049800F0FCFA089A0346CA
:109C900011462046089300F013F9089BA3B9069AD1
:109CA00092B9079A82B9B8F1390F29D0009B002BDD
:109CB00001DD05F13108059B5D1C83F8008082E71A
:109CC0003046C2E70123E3E7009A002A04DB25D1EE
:109CD000069A1ABB079A0ABB002BECDD01220499F5
:109CE000204600F07BFA3946049000F0CBFA0028B9
:109CF00003DCE0D118F0010FDDD0B8F1390FD8D175
:109D0000059B059A5D1C3923137015F8013C392B0E
:109D100005F1FF324FD00133137054E7059A002B41
:109D200002F1010506DDB8F1390FE9D008F10108AB
:109D3000059BC2E7029A05F8018CA5EB0B03934241
:109D400021D000230A220499204600F0D0F8B14522
:109D500004904FF000034FF00A024946204605D117
:109D600000F0C5F881460646059576E700F0BFF895
:109D70003146814600230A22204600F0B8F8064604
:109D8000F2E74FF0000901220499204600F026FA7C
:109D90003946049000F076FA0028B6DC02D118F0BB
:109DA000010FB2D115F8013C302B05F1FF327FF4E1
:109DB0000AAF1546F6E7934505D131230AF1010AAA
:109DC0008BF80030FFE615469FE7DFF864B007E048
:109DD000219BDFF860B01BB10BF10803219A1360DF
:109DE000584617B0BDE8F08F069B012B7FF735AEC4
:109DF0000E9B079349E6029B002B03DC069B022B7C
:109E00003FF7CCAE5D4639460498FFF7CFF900F135
:109E1000300805F8018B029AA5EB0B039A42B0DDDE
:109E200000230A220499204600F061F80490EAE732
:109E300074AE020076AE0200044B1B68186A044B35
:109E4000002808BF1846F030704700BF04600020AB
:109E5000686000207047704770B5456A04460E463A
:109E60003DB91020FDF7EEFE6062C0E901550560C6
:109E7000C560656AEB6883B1636ADB6853F82600E6
:109E8000B8B9012101FA06F56A1D92002046FEF7D5
:109E900074FD60B1C0E901650EE021220421204675
:109EA000FEF76BFD636AE860DB68002BE4D10020FD
:109EB00070BD026843F826200023C0E90333F7E7AA
:109EC00070B5446A06460D463CB91020FDF7BAFE4F
:109ED0007062C0E901440460C4603DB1736A6A689D
:109EE000DB6853F82210296043F8225070BD2DE939
:109EF000F0410D691F4606460C4601F1140C002383
:109F0000DCF8000081B202FB01710F0C000C02FBB7
:109F1000007089B2013301EB00419D424FEA1047C6
:109F20004CF8041BECDCD7B1A368AB4212DC6168CF
:109F300030460131FFF790FF2269023204F10C0133
:109F4000804692000C30FEF705FD21463046FFF7B3
:109F5000B7FF444604EB850301355F612561204668
:109F6000BDE8F081020C12040346B2B903041020CC
:109F700013F07F4F04BF1B02083013F0704F04BF73
:109F80001B01043013F0404F04BF9B000230002B34
:109F900006DB5B0003D5013070470020E8E7202096
:109FA0007047036813F0070201460BD0DA0723D489
:109FB000980749BF5B089B0801200B605CBF0B60E2
:109FC0000220704798B2A8B91B0C102013F0FF0FA5
:109FD00004BF1B0A08301A0704BF1B0904309A0784
:109FE00004BF9B080230DA0702D45B0806D00130B8
:109FF0000B6070471046E9E700207047202070474B
:10A0000010B50C460121FFF727FF012244610261D0
:10A0100010BD2DE9F74F14460A6923699A42B8BF6B
:10A020000B468846BCBFA0461C46D8F81070D4F832
:10A030001090D8F80830D8F8041007EB0906B3429E
:10A04000B8BF0131FFF708FF00F1140505EB860EDC
:10A050002B460022734516D304F1140208F11401B3
:10A0600002EB890301EB87070093009B0192934267
:10A070000CD8002E03DD5EF8043D002B5DD0066198
:10A0800003B0BDE8F08F43F8042BE3E7B2F800B06B
:10A09000BBF1000F23D08946AC464FF0000859F8B9
:10A0A000044BDCF800A0A3B21FFA8AFA0BFB03A34F
:10A0B0004FEA144ADCF8004043444FEA14480BFBD3
:10A0C0000A8404EB1344E2469BB243EA04434F453F
:10A0D0004FEA14484AF8043B2BD8CCF80480019B83
:10A0E000B3F802A00432BAF1000F20D02B688946E1
:10A0F000A8464FF0000BB9F800C0B8F802400AFBC0
:10A100000C445C44C4469BB243EA04434CF8043B11
:10A1100059F8043BB8F804B01B0C0AFB03B303EB7B
:10A1200014434F454FEA134B05D8C8F804300435A3
:10A130009BE7D446B3E7E046DDE7013E99E7000040
:10A140002DE9F843154612F0030206460F4607D0E4
:10A15000013A214C002354F82220FFF7C8FE07469D
:10A16000AD1035D0746A3CB91020FDF76BFD7062FC
:10A17000C0E901440460C460D6F82480D8F80840DF
:10A180004CB940F271213046FFF73AFF0023C8F87E
:10A190000800044603604FF00008EB070AD5394673
:10A1A00022463046FFF735FF394681463046FFF7F5
:10A1B00087FE4F466D100BD0206838B922462146E5
:10A1C0003046FFF726FF2060C0F800800446E4E731
:10A1D0003846BDE8F88300BF78AF02002DE9F047AC
:10A1E0000C464FEA621A236949680AEB0309A3681F
:10A1F0000746164609F10105AB4232DB3846FFF748
:10A200002BFE0023804600F114011A4653452BDB38
:10A2100020692AEAEA7A04F1140316F01F0201EB1E
:10A220008A0103EB800C25D0C2F1200E00201E68AD
:10A230008A46964030434AF8040B53F8040B9C4579
:10A2400020FA0EF014D8486008B109F10205013D6A
:10A250003846C8F810502146FFF732FE4046BDE8A8
:10A26000F08701315B00C7E741F823200133CDE7D8
:10A270005146DCE7043953F8042B41F8042F9C4580
:10A28000F9D8E4E703690A699B1A30B50CD192004A
:10A29000143014318418114454F8045D51F8042D1D
:10A2A000954203D005D30123184630BDA042F3D315
:10A2B000FAE74FF0FF33F7E72DE9F0470D46074681
:10A2C000114628461446FFF7DDFF061E08D1314629
:10A2D0003846FFF7C1FD0123C0E90436BDE8F08729
:10A2E000A4BF23462C4638466168A6BF1D460026FB
:10A2F0000126FFF7B1FD2B69C660266905F1140937
:10A3000004F1140202EB860709EB830800F114053F
:10A310004FF0000E52F804AB59F8044B1EFA8AF1C4
:10A32000A3B2C91A230CC3EB1A4303EB214389B22E
:10A330004FEA234EC84541EA0343944645F8043B9F
:10A34000E8D8BC4504D355F8043D83B10661C5E7A0
:10A350005CF8041B1EFA81F31A1402EB11429BB243
:10A3600043EA02434FEA224E45F8043BE9E7013E47
:10A37000E9E72DE9F7430E46012159EC108B15460C
:10A38000FFF76AFDC9F30A540746C9F3130334BB48
:10A390000193B8F1000327D002A840F8083DFFF769
:10A3A00000FE0099F0B1019AC0F1200302FA03F314
:10A3B0000B43C2407B610192019BBB61002B14BF28
:10A3C000022101213961C4B1A4F233440444346050
:10A3D000C0F135002860384603B0BDE8F08343F48F
:10A3E0008013D5E77961E7E701A8FFF7DAFD019B64
:10A3F0007B61012139612030E5E707EB8103A0F2A1
:10A40000324030601869FFF7ADFDC0EB4110E1E765
:10A4100082B001B901A942B14BB113780B60127837
:10A42000101C18BF012002B070471046FBE76FF008
:10A430000100F8E749B1FF2A85BF8A2303600A704B
:10A440004FF0FF3098BF012070470846704700006A
:10A4500081F0004102E000BF83F0004330B54FEAD5
:10A4600041044FEA430594EA050F08BF90EA020F42
:10A470001FBF54EA000C55EA020C7FEA645C7FEAD5
:10A48000655C00F0E2804FEA5454D4EB5555B8BFF8
:10A490006D420CDD2C4480EA020281EA030382EA69
:10A4A000000083EA010180EA020281EA0303362DFB
:10A4B00088BF30BD11F0004F4FEA01314FF4801CCE
:10A4C0004CEA113102D0404261EB410113F0004FE0
:10A4D0004FEA03334CEA133302D0524263EB430397
:10A4E00094EA050F00F0A780A4F10104D5F1200E35
:10A4F0000DDB02FA0EFC22FA05F2801841F1000190
:10A5000003FA0EF2801843FA05F359410EE0A5F163
:10A5100020050EF1200E012A03FA0EFC28BF4CF094
:10A52000020C43FA05F3C01851EBE37101F000454A
:10A5300007D54FF0000EDCF1000C7EEB00006EEB57
:10A540000101B1F5801F1BD3B1F5001F0CD34908E1
:10A550005FEA30004FEA3C0C04F101044FEA445238
:10A5600012F5800F80F09A80BCF1004F08BF5FEABF
:10A57000500C50F1000041EB045141EA050130BD9F
:10A580005FEA4C0C404141EB010111F4801FA4F142
:10A590000104E9D191F0000F04BF01460020B1FA97
:10A5A00081F308BF2033A3F10B03B3F120020CDACF
:10A5B0000C3208DD02F1140CC2F10C0201FA0CF0AD
:10A5C00021FA02F10CE002F11402D8BFC2F1200C12
:10A5D00001FA02F120FA0CFCDCBF41EA0C019040C8
:10A5E000E41AA2BF01EB0451294330BD6FEA040411
:10A5F0001F3C1CDA0C340EDC04F11404C4F12002FC
:10A6000020FA04F001FA02F340EA030021FA04F30D
:10A6100045EA030130BDC4F10C04C4F1200220FA64
:10A6200002F001FA04F340EA0300294630BD21FAA2
:10A6300004F0294630BD94F0000F83F4801306BF68
:10A6400081F480110134013D4EE77FEA645C18BF5C
:10A650007FEA655C29D094EA050F08BF90EA020FF3
:10A6600005D054EA000C04BF1946104630BD91EAEB
:10A67000030F1EBF0021002030BD5FEA545C05D1EE
:10A680004000494128BF41F0004130BD14F580042D
:10A690003CBF01F5801130BD01F0004545F0FE41A1
:10A6A00041F470014FF0000030BD7FEA645C1ABFD6
:10A6B000194610467FEA655C1CBF0B46024650EA0D
:10A6C000013406BF52EA033591EA030F41F4002139
:10A6D00030BD00BF90F0000F04BF0021704730B5BF
:10A6E0004FF4806404F132044FF000054FF0000194
:10A6F00050E700BF90F0000F04BF0021704730B555
:10A700004FF4806404F1320410F0004548BF404229
:10A710004FF000013EE700BF42004FEAE2014FEA7E
:10A7200031014FEA02701FBF12F07F4393F07F4F59
:10A7300081F06051704732F07F4208BF704793F05C
:10A740007F4F04BF41F40021704730B54FF460746F
:10A7500001F0004521F000411CE700BF50EA010272
:10A7600008BF704730B54FF000050AE050EA01021B
:10A7700008BF704730B511F0004502D5404261EB8B
:10A7800041014FF4806404F132045FEA915C3FF4CC
:10A79000D8AE4FF003025FEADC0C18BF03325FEA69
:10A7A000DC0C18BF033202EBDC02C2F1200300FA1A
:10A7B00003FC20FA02F001FA03FE40EA0E0021FA3F
:10A7C00002F11444BDE600BF70B54FF0FF0C4CF42D
:10A7D000E06C1CEA11541DBF1CEA135594EA0C0FDF
:10A7E00095EA0C0F00F0DEF82C4481EA030621EA1A
:10A7F0004C5123EA4C5350EA013518BF52EA033555
:10A8000041F4801143F4801338D0A0FB02CE4FF006
:10A810000005E1FB02E506F00042E0FB03E54FF036
:10A820000006E1FB03569CF0000F18BF4EF0010E2E
:10A83000A4F1FF04B6F5007F64F5407404D25FEA2A
:10A840004E0E6D4146EB060642EAC62141EA5551DD
:10A850004FEAC52040EA5E504FEACE2EB4F1FD0C1F
:10A8600088BFBCF5E06F1ED8BEF1004F08BF5FEA9D
:10A87000500E50F1000041EB045170BD06F000464F
:10A8800046EA010140EA020081EA0301B4EB5C04FC
:10A89000C2BFD4EB0C0541EA045170BD41F48011F4
:10A8A0004FF0000E013C00F3AB8014F1360FDEBF19
:10A8B000002001F0004170BDC4F10004203C35DAF5
:10A8C0000C341BDC04F11404C4F1200500FA05F378
:10A8D00020FA04F001FA05F240EA020001F0004219
:10A8E00021F0004110EBD37021FA04F642EB06018F
:10A8F0005EEA430E08BF20EAD37070BDC4F10C04B9
:10A90000C4F1200500FA04F320FA05F001FA04F27C
:10A9100040EA020001F0004110EBD37041F1000168
:10A920005EEA430E08BF20EAD37070BDC4F1200573
:10A9300000FA05F24EEA020E20FA04F301FA05F2DB
:10A9400043EA020321FA04F001F0004121FA04F283
:10A9500020EA020000EBD3705EEA430E08BF20EA53
:10A96000D37070BD94F0000F0FD101F0004640008D
:10A9700041EB010111F4801F08BF013CF7D041EA0F
:10A98000060195F0000F18BF704703F00046520013
:10A9900043EB030313F4801F08BF013DF7D043EAE4
:10A9A0000603704794EA0C0F0CEA135518BF95EA9A
:10A9B0000C0F0CD050EA410618BF52EA4306D1D121
:10A9C00081EA030101F000414FF0000070BD50EA40
:10A9D000410606BF1046194652EA430619D094EACA
:10A9E0000C0F02D150EA013613D195EA0C0F05D1B4
:10A9F00052EA03361CBF104619460AD181EA030108
:10AA000001F0004141F0FE4141F470014FF00000BF
:10AA100070BD41F0FE4141F4780170BD70B54FF05A
:10AA2000FF0C4CF4E06C1CEA11541DBF1CEA1355DA
:10AA300094EA0C0F95EA0C0F00F0A7F8A4EB0504BC
:10AA400081EA030E52EA03354FEA013100F08880B3
:10AA50004FEA03334FF0805545EA131343EA12637C
:10AA60004FEA022245EA111545EA10654FEA002631
:10AA70000EF000419D4208BF964244F1FD0404F5EA
:10AA8000407402D25B084FEA3202B61A65EB030546
:10AA90005B084FEA32024FF480104FF4002CB6EB03
:10AAA000020E75EB030E22BFB61A754640EA0C0083
:10AAB0005B084FEA3202B6EB020E75EB030E22BFC3
:10AAC000B61A754640EA5C005B084FEA3202B6EB04
:10AAD000020E75EB030E22BFB61A754640EA9C00C3
:10AAE0005B084FEA3202B6EB020E75EB030E22BF93
:10AAF000B61A754640EADC0055EA060E18D04FEA51
:10AB0000051545EA16754FEA06164FEAC30343EAF0
:10AB100052734FEAC2025FEA1C1CC0D111F4801FBD
:10AB20000BD141EA00014FF000004FF0004CB6E7B6
:10AB300011F4801F04BF01430020B4F1FD0C88BF55
:10AB4000BCF5E06F3FF6AFAEB5EB030C04BFB6EB60
:10AB5000020C5FEA500C50F1000041EB045170BD53
:10AB60000EF0004E4EEA113114EB5C04C2BFD4EB80
:10AB70000C0541EA045170BD41F480114FF0000E04
:10AB8000013C90E645EA060E8DE60CEA135594EA80
:10AB90000C0F08BF95EA0C0F3FF43BAF94EA0C0F83
:10ABA0000AD150EA01347FF434AF95EA0C0F7FF4F8
:10ABB00025AF104619462CE795EA0C0F06D152EA4C
:10ABC00003353FF4FDAE1046194622E750EA410630
:10ABD00018BF52EA43067FF4C5AE50EA41047FF441
:10ABE0000DAF52EA43057FF4EBAE12E74FF0FF3CA6
:10ABF00006E000BF4FF0010C02E000BF4FF0010C77
:10AC00004DF804CD4FEA410C7FEA6C5C4FEA430CEF
:10AC100018BF7FEA6C5C1BD001B050EA410C0CBF3E
:10AC200052EA430C91EA030F02BF90EA020F0020A0
:10AC3000704710F1000F91EA030F58BF994208BF07
:10AC400090422CBFD8176FEAE37040F001007047C4
:10AC50004FEA410C7FEA6C5C02D150EA013C07D11B
:10AC60004FEA430C7FEA6C5CD6D152EA033CD3D066
:10AC70005DF8040B704700BF8446104662468C4660
:10AC80001946634600E000BF01B5FFF7B7FF002893
:10AC900048BF10F1000F01BD4DF808EDFFF7F4FFBC
:10ACA0000CBF012000205DF808FB00BF4DF808ED47
:10ACB000FFF7EAFF34BF012000205DF808FB00BF6A
:10ACC0004DF808EDFFF7E0FF94BF012000205DF88C
:10ACD00008FB00BF4DF808EDFFF7CEFF94BF012041
:10ACE00000205DF808FB00BF4DF808EDFFF7C4FF3A
:10ACF00034BF012000205DF808FB00BF4FEA410C83
:10AD00007FEA6C5C02D150EA013C0AD14FEA430C65
:10AD10007FEA6C5C02D152EA033C02D14FF00000A2
:10AD200070474FF0010070474FEA410212F50012E0
:10AD300015D211D56FF47873B3EB625212D94FEA82
:10AD4000C12343F0004343EA505311F0004F23FA6C
:10AD500002F018BF404270474FF00000704750EAC1
:10AD6000013005D111F0004008BF6FF0004070477E
:10AD70004FF00000704700BF044A05491368002BDC
:10AD800008BF0B461844106018467047E86B002057
:10AD90000C6C0020FEE700BFF8B500BFF8BC08BC93
:10ADA0009E467047F8B500BFF8BC08BC9E46704789
:10ADB000546D725100000000546D72205376630090
:10ADC0006C6F6F700000000043616C6C6261636BBC
:10ADD0000000000019000000180000000A00000038
:10ADE0002F0000002A0000002800000007000000DB
:10ADF00022000000100000001A0000001B000000EC
:10AE00000600000008000000290000000400000007
:10AE1000050000001E0000001C00000002000000F1
:10AE2000030000001D0000001F0000000C000000D7
:10AE30000B0000000F0000000D0000000E000000DD
:10AE400013000000140000001100000016000000B4
:10AE50001700000015000000090000002E0000008F
:10AE600008600020494E4600696E66004E414E0063
:10AE70006E616E003000496E66696E697479004ECD
:10AE8000614E0000000000000080E03779C34143BC
:10AE9000176E05B5B5B89346F5F93FE9034F384D40
:10AEA000321D30F94877825A3CBF737FDD4F1575EC
:10AEB000000000000000F03F0000000000002440FF
:10AEC00000000000000059400000000000408F40DA
:10AED000000000000088C34000000000006AF84045
:10AEE0000000000080842E4100000000D012634169
:10AEF0000000000084D797410000000065CDCD41DF
:10AF0000000000205FA00242000000E876483742BF
:10AF1000000000A2941A6D42000040E59C30A2425D
:10AF20000000901EC4BCD64200003426F56B0C43D2
:10AF30000080E03779C3414300A0D8855734764379
:10AF400000C84E676DC1AB43003D9160E458E143DA
:10AF5000408CB5781DAF154450EFE2D6E41A4B444F
:10AF600092D54D06CFF08044F64AE1C7022DB54494
:10AF7000B49DD9794378EA44050000001900000027
:10AF80007D0000004300504F534958002E00002020
:10AF90002020202020202020282828282820202089
:10AFA0002020202020202020202020202020208839
:10AFB000101010101010101010101010101010049D
:10AFC00004040404040404040410101010101010ED
:10AFD00041414141414101010101010101010101E1
:10AFE00001010101010101010101101010101010F7
:10AFF00042424242424202020202020202020202B1
:10B0000002020202020202020202101010102000CC
:10B010000000000000000000000000000000000030
:10B020000000000000000000000000000000000020
:10B030000000000000000000000000000000000010
:10B040000000000000000000000000000000000000
:10B0500000000000000000000000000000000000F0
:10B0600000000000000000000000000000000000E0
:10B0700000000000000000000000000000000000D0
:10B0800000000000000000000000000000000000C0
:04B0900000000000BC
:08B09400BCB1FF7F01000000C8
:10B09C000090D003086000200000000000000000B9
:10B0AC000000000000000000000000000000000094
:10B0BC000000000000000000000000000000000084
:10B0CC000000000000000000000000000000000074
:10B0DC000000000000000000000000000000000064
:10B0EC000000000000000000000000000000000054
:10B0FC000000000000000000430000000000000001
:10B10C000000000000000000000000000000000033
:10B11C0000000000000000004300000000000000E0
:10B12C000000000000000000000000000000000013
:10B13C0000000000000000004300000000000000C0
:10B14C0000000000000000000000000000000000F3
:10B15C0000000000000000004300000000000000A0
:10B16C0000000000000000000000000000000000D3
:10B17C000000000000000000430000000000000080
:10B18C0000000000000000000000000000000000B3
:10B19C000000000000000000430000000000000060
:10B1AC000000000000000000000000000000000093
:10B1BC000000000000000000430000000000000040
:10B1CC000000000000000000000000000000000073
:10B1DC00000000000000000035A4020011A40200D1
:10B1EC00000000008EAF02008CAF02008DAF020099
:10B1FC008DAF02008DAF02008DAF02008DAF02004B
:10B20C008DAF02008DAF02008DAF02008DAF02003A
:10B21C00FFFFFFFFFFFFFFFFFFFFFFFFFFFF000030
:10B22C0001004153434949000000000000000000A8
:10B23C000000000000000000000000000000000002
:10B24C000000415343494900000000000000000089
:10B25C0000000000000000000000000000000000E2
:10B26C00000000000162020035620200116202005F
:04000003200075D193
:00000001FF
